{
  "contractName": "Lottery",
  "abi": [
    {
      "inputs": [],
      "stateMutability": "nonpayable",
      "type": "constructor"
    },
    {
      "inputs": [],
      "name": "manager",
      "outputs": [
        {
          "internalType": "address",
          "name": "",
          "type": "address"
        }
      ],
      "stateMutability": "view",
      "type": "function"
    },
    {
      "inputs": [
        {
          "internalType": "uint256",
          "name": "",
          "type": "uint256"
        }
      ],
      "name": "players",
      "outputs": [
        {
          "internalType": "address payable",
          "name": "",
          "type": "address"
        }
      ],
      "stateMutability": "view",
      "type": "function"
    },
    {
      "stateMutability": "payable",
      "type": "receive"
    },
    {
      "inputs": [],
      "name": "getBalance",
      "outputs": [
        {
          "internalType": "uint256",
          "name": "",
          "type": "uint256"
        }
      ],
      "stateMutability": "view",
      "type": "function"
    }
  ],
  "bytecode": "0x608060405234801561001057600080fd5b5033600160006101000a81548173ffffffffffffffffffffffffffffffffffffffff021916908373ffffffffffffffffffffffffffffffffffffffff1602179055506104c9806100616000396000f3fe6080604052600436106100385760003560e01c806312065fe0146100f0578063481c6a751461011b578063f71d96cb14610146576100eb565b366100eb57662386f26fc100003414610086576040517f08c379a000000000000000000000000000000000000000000000000000000000815260040161007d906102dd565b60405180910390fd5b6000339080600181540180825580915050600190039060005260206000200160009091909190916101000a81548173ffffffffffffffffffffffffffffffffffffffff021916908373ffffffffffffffffffffffffffffffffffffffff160217905550005b600080fd5b3480156100fc57600080fd5b50610105610183565b6040516101129190610316565b60405180910390f35b34801561012757600080fd5b5061013061021b565b60405161013d9190610372565b60405180910390f35b34801561015257600080fd5b5061016d600480360381019061016891906103be565b610241565b60405161017a919061040c565b60405180910390f35b6000600160009054906101000a900473ffffffffffffffffffffffffffffffffffffffff1673ffffffffffffffffffffffffffffffffffffffff163373ffffffffffffffffffffffffffffffffffffffff1614610215576040517f08c379a000000000000000000000000000000000000000000000000000000000815260040161020c90610473565b60405180910390fd5b47905090565b600160009054906101000a900473ffffffffffffffffffffffffffffffffffffffff1681565b6000818154811061025157600080fd5b906000526020600020016000915054906101000a900473ffffffffffffffffffffffffffffffffffffffff1681565b600082825260208201905092915050565b7f76616c7565206d75737420657175616c20302e30312065746865720000000000600082015250565b60006102c7601b83610280565b91506102d282610291565b602082019050919050565b600060208201905081810360008301526102f6816102ba565b9050919050565b6000819050919050565b610310816102fd565b82525050565b600060208201905061032b6000830184610307565b92915050565b600073ffffffffffffffffffffffffffffffffffffffff82169050919050565b600061035c82610331565b9050919050565b61036c81610351565b82525050565b60006020820190506103876000830184610363565b92915050565b600080fd5b61039b816102fd565b81146103a657600080fd5b50565b6000813590506103b881610392565b92915050565b6000602082840312156103d4576103d361038d565b5b60006103e2848285016103a9565b91505092915050565b60006103f682610331565b9050919050565b610406816103eb565b82525050565b600060208201905061042160008301846103fd565b92915050565b7f6f6e6c79206d616e616765722063616e207365652062616c616e636500000000600082015250565b600061045d601c83610280565b915061046882610427565b602082019050919050565b6000602082019050818103600083015261048c81610450565b905091905056fea26469706673582212204fdd8906e612f579ec51dcac08d7ecb596cf14da3e1dd5a4b8244d989e93553964736f6c634300080b0033",
  "immutableReferences": {},
  "source": "// SPDX-License-Identifier: MIT\npragma solidity >=0.4.22 <0.9.0;\n\ncontract Lottery {\n\n  address payable[] public players;\n  address public manager;\n\n  constructor() {\n    manager = payable(msg.sender);\n  }\n\n  receive() external payable {\n    require(msg.value == 0.01 ether, 'value must equal 0.01 ether');\n    players.push(payable(msg.sender ));\n  }\n\n  function getBalance() public view returns(uint){\n    require(msg.sender == manager, 'only manager can see balance');\n    return address(this).balance;\n  }\n\n}",
  "sourcePath": "/home/raihanard/Documents/blockchain/lottery-smart-contract/contracts/Lottery.sol",
  "compiler": {
    "name": "solc",
    "version": "0.8.11+commit.d7f03943.Emscripten.clang"
  },
  "schemaVersion": "3.4.4",
  "updatedAt": "2022-01-20T19:16:13.832Z",
  "devdoc": {
    "kind": "dev",
    "methods": {},
    "version": 1
  },
  "userdoc": {
    "kind": "user",
    "methods": {},
    "version": 1
  }
}